{
  "_format": "hh-sol-artifact-1",
  "contractName": "WavePortal",
  "sourceName": "contracts/WavePortal.sol",
  "abi": [
    {
      "inputs": [],
      "stateMutability": "nonpayable",
      "type": "constructor"
    },
    {
      "inputs": [
        {
          "internalType": "address",
          "name": "owner",
          "type": "address"
        }
      ],
      "name": "OwnableInvalidOwner",
      "type": "error"
    },
    {
      "inputs": [
        {
          "internalType": "address",
          "name": "account",
          "type": "address"
        }
      ],
      "name": "OwnableUnauthorizedAccount",
      "type": "error"
    },
    {
      "anonymous": false,
      "inputs": [
        {
          "indexed": true,
          "internalType": "address",
          "name": "from",
          "type": "address"
        },
        {
          "indexed": false,
          "internalType": "uint256",
          "name": "timestamp",
          "type": "uint256"
        },
        {
          "indexed": false,
          "internalType": "string",
          "name": "message",
          "type": "string"
        }
      ],
      "name": "NewWave",
      "type": "event"
    },
    {
      "anonymous": false,
      "inputs": [
        {
          "indexed": true,
          "internalType": "address",
          "name": "previousOwner",
          "type": "address"
        },
        {
          "indexed": true,
          "internalType": "address",
          "name": "newOwner",
          "type": "address"
        }
      ],
      "name": "OwnershipTransferred",
      "type": "event"
    },
    {
      "inputs": [],
      "name": "getAllWaves",
      "outputs": [
        {
          "components": [
            {
              "internalType": "address",
              "name": "waver",
              "type": "address"
            },
            {
              "internalType": "string",
              "name": "message",
              "type": "string"
            },
            {
              "internalType": "bool",
              "name": "owner_approved",
              "type": "bool"
            },
            {
              "internalType": "uint256",
              "name": "timestamp",
              "type": "uint256"
            }
          ],
          "internalType": "struct WavePortal.Wave[]",
          "name": "",
          "type": "tuple[]"
        }
      ],
      "stateMutability": "view",
      "type": "function"
    },
    {
      "inputs": [],
      "name": "getTotalWaves",
      "outputs": [
        {
          "internalType": "uint256",
          "name": "",
          "type": "uint256"
        }
      ],
      "stateMutability": "view",
      "type": "function"
    },
    {
      "inputs": [
        {
          "internalType": "address",
          "name": "",
          "type": "address"
        }
      ],
      "name": "lastWavedAt",
      "outputs": [
        {
          "internalType": "uint256",
          "name": "",
          "type": "uint256"
        }
      ],
      "stateMutability": "view",
      "type": "function"
    },
    {
      "inputs": [],
      "name": "owner",
      "outputs": [
        {
          "internalType": "address",
          "name": "",
          "type": "address"
        }
      ],
      "stateMutability": "view",
      "type": "function"
    },
    {
      "inputs": [],
      "name": "renounceOwnership",
      "outputs": [],
      "stateMutability": "nonpayable",
      "type": "function"
    },
    {
      "inputs": [
        {
          "internalType": "uint256",
          "name": "idx",
          "type": "uint256"
        },
        {
          "internalType": "bool",
          "name": "approved",
          "type": "bool"
        }
      ],
      "name": "setApproveMessage",
      "outputs": [],
      "stateMutability": "nonpayable",
      "type": "function"
    },
    {
      "inputs": [
        {
          "internalType": "address",
          "name": "newOwner",
          "type": "address"
        }
      ],
      "name": "transferOwnership",
      "outputs": [],
      "stateMutability": "nonpayable",
      "type": "function"
    },
    {
      "inputs": [
        {
          "internalType": "string",
          "name": "_message",
          "type": "string"
        }
      ],
      "name": "wave",
      "outputs": [],
      "stateMutability": "nonpayable",
      "type": "function"
    }
  ],
  "bytecode": "0x608060405234801561001057600080fd5b5033600073ffffffffffffffffffffffffffffffffffffffff168173ffffffffffffffffffffffffffffffffffffffff16036100845760006040517f1e4fbdf700000000000000000000000000000000000000000000000000000000815260040161007b919061019e565b60405180910390fd5b6100938161009960201b60201c565b506101b9565b60008060009054906101000a900473ffffffffffffffffffffffffffffffffffffffff169050816000806101000a81548173ffffffffffffffffffffffffffffffffffffffff021916908373ffffffffffffffffffffffffffffffffffffffff1602179055508173ffffffffffffffffffffffffffffffffffffffff168173ffffffffffffffffffffffffffffffffffffffff167f8be0079c531659141344cd1fd0a4f28419497f9722a3daafe3b4186f6b6457e060405160405180910390a35050565b600073ffffffffffffffffffffffffffffffffffffffff82169050919050565b60006101888261015d565b9050919050565b6101988161017d565b82525050565b60006020820190506101b3600083018461018f565b92915050565b61113d806101c86000396000f3fe608060405234801561001057600080fd5b50600436106100885760003560e01c80639a2cdc081161005b5780639a2cdc08146100ed578063a42a46631461010b578063bd43a9081461013b578063f2fde38b1461015957610088565b8063449d46c01461008d578063715018a6146100a957806385e6ca71146100b35780638da5cb5b146100cf575b600080fd5b6100a760048036038101906100a291906108e8565b610175565b005b6100b16103a1565b005b6100cd60048036038101906100c8919061099f565b6103b5565b005b6100d76103fe565b6040516100e49190610a20565b60405180910390f35b6100f5610427565b6040516101029190610a4a565b60405180910390f35b61012560048036038101906101209190610a91565b610431565b6040516101329190610a4a565b60405180910390f35b610143610449565b6040516101509190610c8f565b60405180910390f35b610173600480360381019061016e9190610a91565b6105b5565b005b42610384600360003373ffffffffffffffffffffffffffffffffffffffff1673ffffffffffffffffffffffffffffffffffffffff168152602001908152602001600020546101c39190610ce0565b10610203576040517f08c379a00000000000000000000000000000000000000000000000000000000081526004016101fa90610d71565b60405180910390fd5b42600360003373ffffffffffffffffffffffffffffffffffffffff1673ffffffffffffffffffffffffffffffffffffffff1681526020019081526020016000208190555060018060008282546102599190610ce0565b92505081905550600260405180608001604052803373ffffffffffffffffffffffffffffffffffffffff16815260200183815260200160001515815260200142815250908060018154018082558091505060019003906000526020600020906004020160009091909190915060008201518160000160006101000a81548173ffffffffffffffffffffffffffffffffffffffff021916908373ffffffffffffffffffffffffffffffffffffffff16021790555060208201518160010190816103219190610f9d565b5060408201518160020160006101000a81548160ff0219169083151502179055506060820151816003015550503373ffffffffffffffffffffffffffffffffffffffff167f5f7e16dc676677766a70e9c5628aa6c54ddb8b6e5188e2ae1e1f17f1ffbea71642836040516103969291906110a8565b60405180910390a250565b6103a961063b565b6103b360006106c2565b565b6103bd61063b565b80600283815481106103d2576103d16110d8565b5b906000526020600020906004020160020160006101000a81548160ff0219169083151502179055505050565b60008060009054906101000a900473ffffffffffffffffffffffffffffffffffffffff16905090565b6000600154905090565b60036020528060005260406000206000915090505481565b60606002805480602002602001604051908101604052809291908181526020016000905b828210156105ac57838290600052602060002090600402016040518060800160405290816000820160009054906101000a900473ffffffffffffffffffffffffffffffffffffffff1673ffffffffffffffffffffffffffffffffffffffff1673ffffffffffffffffffffffffffffffffffffffff1681526020016001820180546104f690610dc0565b80601f016020809104026020016040519081016040528092919081815260200182805461052290610dc0565b801561056f5780601f106105445761010080835404028352916020019161056f565b820191906000526020600020905b81548152906001019060200180831161055257829003601f168201915b505050505081526020016002820160009054906101000a900460ff161515151581526020016003820154815250508152602001906001019061046d565b50505050905090565b6105bd61063b565b600073ffffffffffffffffffffffffffffffffffffffff168173ffffffffffffffffffffffffffffffffffffffff160361062f5760006040517f1e4fbdf70000000000000000000000000000000000000000000000000000000081526004016106269190610a20565b60405180910390fd5b610638816106c2565b50565b610643610786565b73ffffffffffffffffffffffffffffffffffffffff166106616103fe565b73ffffffffffffffffffffffffffffffffffffffff16146106c057610684610786565b6040517f118cdaa70000000000000000000000000000000000000000000000000000000081526004016106b79190610a20565b60405180910390fd5b565b60008060009054906101000a900473ffffffffffffffffffffffffffffffffffffffff169050816000806101000a81548173ffffffffffffffffffffffffffffffffffffffff021916908373ffffffffffffffffffffffffffffffffffffffff1602179055508173ffffffffffffffffffffffffffffffffffffffff168173ffffffffffffffffffffffffffffffffffffffff167f8be0079c531659141344cd1fd0a4f28419497f9722a3daafe3b4186f6b6457e060405160405180910390a35050565b600033905090565b6000604051905090565b600080fd5b600080fd5b600080fd5b600080fd5b6000601f19601f8301169050919050565b7f4e487b7100000000000000000000000000000000000000000000000000000000600052604160045260246000fd5b6107f5826107ac565b810181811067ffffffffffffffff82111715610814576108136107bd565b5b80604052505050565b600061082761078e565b905061083382826107ec565b919050565b600067ffffffffffffffff821115610853576108526107bd565b5b61085c826107ac565b9050602081019050919050565b82818337600083830152505050565b600061088b61088684610838565b61081d565b9050828152602081018484840111156108a7576108a66107a7565b5b6108b2848285610869565b509392505050565b600082601f8301126108cf576108ce6107a2565b5b81356108df848260208601610878565b91505092915050565b6000602082840312156108fe576108fd610798565b5b600082013567ffffffffffffffff81111561091c5761091b61079d565b5b610928848285016108ba565b91505092915050565b6000819050919050565b61094481610931565b811461094f57600080fd5b50565b6000813590506109618161093b565b92915050565b60008115159050919050565b61097c81610967565b811461098757600080fd5b50565b60008135905061099981610973565b92915050565b600080604083850312156109b6576109b5610798565b5b60006109c485828601610952565b92505060206109d58582860161098a565b9150509250929050565b600073ffffffffffffffffffffffffffffffffffffffff82169050919050565b6000610a0a826109df565b9050919050565b610a1a816109ff565b82525050565b6000602082019050610a356000830184610a11565b92915050565b610a4481610931565b82525050565b6000602082019050610a5f6000830184610a3b565b92915050565b610a6e816109ff565b8114610a7957600080fd5b50565b600081359050610a8b81610a65565b92915050565b600060208284031215610aa757610aa6610798565b5b6000610ab584828501610a7c565b91505092915050565b600081519050919050565b600082825260208201905092915050565b6000819050602082019050919050565b610af3816109ff565b82525050565b600081519050919050565b600082825260208201905092915050565b60005b83811015610b33578082015181840152602081019050610b18565b60008484015250505050565b6000610b4a82610af9565b610b548185610b04565b9350610b64818560208601610b15565b610b6d816107ac565b840191505092915050565b610b8181610967565b82525050565b610b9081610931565b82525050565b6000608083016000830151610bae6000860182610aea565b5060208301518482036020860152610bc68282610b3f565b9150506040830151610bdb6040860182610b78565b506060830151610bee6060860182610b87565b508091505092915050565b6000610c058383610b96565b905092915050565b6000602082019050919050565b6000610c2582610abe565b610c2f8185610ac9565b935083602082028501610c4185610ada565b8060005b85811015610c7d5784840389528151610c5e8582610bf9565b9450610c6983610c0d565b925060208a01995050600181019050610c45565b50829750879550505050505092915050565b60006020820190508181036000830152610ca98184610c1a565b905092915050565b7f4e487b7100000000000000000000000000000000000000000000000000000000600052601160045260246000fd5b6000610ceb82610931565b9150610cf683610931565b9250828201905080821115610d0e57610d0d610cb1565b5b92915050565b600082825260208201905092915050565b7f576169742031356d000000000000000000000000000000000000000000000000600082015250565b6000610d5b600883610d14565b9150610d6682610d25565b602082019050919050565b60006020820190508181036000830152610d8a81610d4e565b9050919050565b7f4e487b7100000000000000000000000000000000000000000000000000000000600052602260045260246000fd5b60006002820490506001821680610dd857607f821691505b602082108103610deb57610dea610d91565b5b50919050565b60008190508160005260206000209050919050565b60006020601f8301049050919050565b600082821b905092915050565b600060088302610e537fffffffffffffffffffffffffffffffffffffffffffffffffffffffffffffffff82610e16565b610e5d8683610e16565b95508019841693508086168417925050509392505050565b6000819050919050565b6000610e9a610e95610e9084610931565b610e75565b610931565b9050919050565b6000819050919050565b610eb483610e7f565b610ec8610ec082610ea1565b848454610e23565b825550505050565b600090565b610edd610ed0565b610ee8818484610eab565b505050565b5b81811015610f0c57610f01600082610ed5565b600181019050610eee565b5050565b601f821115610f5157610f2281610df1565b610f2b84610e06565b81016020851015610f3a578190505b610f4e610f4685610e06565b830182610eed565b50505b505050565b600082821c905092915050565b6000610f7460001984600802610f56565b1980831691505092915050565b6000610f8d8383610f63565b9150826002028217905092915050565b610fa682610af9565b67ffffffffffffffff811115610fbf57610fbe6107bd565b5b610fc98254610dc0565b610fd4828285610f10565b600060209050601f8311600181146110075760008415610ff5578287015190505b610fff8582610f81565b865550611067565b601f19841661101586610df1565b60005b8281101561103d57848901518255600182019150602085019450602081019050611018565b8683101561105a5784890151611056601f891682610f63565b8355505b6001600288020188555050505b505050505050565b600061107a82610af9565b6110848185610d14565b9350611094818560208601610b15565b61109d816107ac565b840191505092915050565b60006040820190506110bd6000830185610a3b565b81810360208301526110cf818461106f565b90509392505050565b7f4e487b7100000000000000000000000000000000000000000000000000000000600052603260045260246000fdfea26469706673582212204569ee0475b9aa08a48994163f69c6b0feae3e7c7e8e28f87b7bac992806fff664736f6c63430008140033",
  "linkReferences": {},
  "deployedLinkReferences": {}
}